{
  "transactions": [
    {
      "hash": "0xfd7d8f8bd437cf77d38aa771e4830dbb006856e0892d0a19aac4000fafe5a60b",
      "transactionType": "CALL",
      "contractName": null,
      "contractAddress": "0xe556630b8076d6274dce976ed92d037b6be6c249",
      "function": "mintNft(string)",
      "arguments": [
        "ipfs://bafybeig37ioir76s7mg5oobetncojcm3c3hxasyd4rvid4jqhy4gkaheg4/?filename=0-PUG.json"
      ],
      "transaction": {
        "from": "0x61b7376f875c43344a8d82fa55783cca4d0e8caf",
        "to": "0xe556630b8076d6274dce976ed92d037b6be6c249",
        "gas": "0x3da49",
        "value": "0x0",
        "input": "0xda86f4a900000000000000000000000000000000000000000000000000000000000000200000000000000000000000000000000000000000000000000000000000000057697066733a2f2f62616679626569673337696f6972373673376d67356f6f6265746e636f6a636d3363336878617379643472766964346a71687934676b61686567342f3f66696c656e616d653d302d5055472e6a736f6e000000000000000000",
        "nonce": "0x51",
        "chainId": "0xaa36a7"
      },
      "additionalContracts": [],
      "isFixedGasLimit": false
    }
  ],
  "receipts": [
    {
      "status": "0x1",
      "cumulativeGasUsed": "0x766737",
      "logs": [
        {
          "address": "0xe556630b8076d6274dce976ed92d037b6be6c249",
          "topics": [
            "0xddf252ad1be2c89b69c2b068fc378daa952ba7f163c4a11628f55a4df523b3ef",
            "0x0000000000000000000000000000000000000000000000000000000000000000",
            "0x00000000000000000000000061b7376f875c43344a8d82fa55783cca4d0e8caf",
            "0x0000000000000000000000000000000000000000000000000000000000000000"
          ],
          "data": "0x",
          "blockHash": "0x90422f09b54e9a8ef91ca3ac2e58245b4ebcba69d9cfe2e9d576b64f7385590e",
          "blockNumber": "0x9e27bb",
          "blockTimestamp": "0x69a4d1d4",
          "transactionHash": "0xfd7d8f8bd437cf77d38aa771e4830dbb006856e0892d0a19aac4000fafe5a60b",
          "transactionIndex": "0x45",
          "logIndex": "0x7f",
          "removed": false
        }
      ],
      "logsBloom": "0x00000000000000000000000000000000000000000000000200000000000000000000000000000000000000000080000000000000000000000000000000000000000000000000000000000008000000000000000000008000000000000000000000000000020000000000000000000840000000000000000000000010000000000000000000000000000000040000000000000000000000000000000000000000000000000000000000000000000000000000000000000000000000000000000000000002000000000000000000000000000000000000000000000000000020000000000000000000000000010000000000000000000000000000000000000000",
      "type": "0x2",
      "transactionHash": "0xfd7d8f8bd437cf77d38aa771e4830dbb006856e0892d0a19aac4000fafe5a60b",
      "transactionIndex": "0x45",
      "blockHash": "0x90422f09b54e9a8ef91ca3ac2e58245b4ebcba69d9cfe2e9d576b64f7385590e",
      "blockNumber": "0x9e27bb",
      "gasUsed": "0x2ca0f",
      "effectiveGasPrice": "0x1633a3",
      "from": "0x61b7376f875c43344a8d82fa55783cca4d0e8caf",
      "to": "0xe556630b8076d6274dce976ed92d037b6be6c249",
      "contractAddress": null
    }
  ],
  "libraries": [],
  "pending": [],
  "returns": {},
  "timestamp": 1772409301410,
  "chain": 11155111,
  "commit": "3504443"
}